:1000000002308A00E12A00000A108A100A118207D1
:1000100028340C3401340634CE23D52C4527A026B1
:10002000492748104B24CF2000002F308400831331
:100030000008031928280630F800F701F70B1E28DE
:10004000F80B1D287B30F700F70B2428800B1B28AA
:1000500008000830F8000430F700F70B2D2887114E
:10006000A0112008831687000330F700F70B36280D
:100070008312BC0D0712031C432820162008831688
:10008000870047288312201220088316870000006B
:100090008312A0152008831687008312871D4E281F
:1000A000F80B2B280430F700F70B54288711A01108
:1000B000200883168700000083122016200883166C
:1000C00087000330F700F70B63280330F700F70BC6
:1000D00067288312A0152008831687008312871DC6
:1000E0006F28F8010330F700F70B7428071A78140B
:1000F0008711A0112008831687008312071220128F
:10010000200883168700831208003A08003A031972
:100110008D28013A0319B228D828390EF700F0309B
:10012000F70577082504BB00BC0029200000390E24
:10013000F700F030F705770804382504BB00BC0051
:1001400029200230F700F70BA328A6280000390E5B
:10015000F700F030F7057708FB392504BB00BC0039
:100160002920D828390EF700F030F7057708013834
:100170002504BB00BC0029200000390EF700F03038
:10018000F7057708013804382504BB00BC00292096
:100190000230F700F70BCA28CD280000390EF7000F
:1001A000F030F705770801382504BB00BC00292092
:1001B000080020162008831687000430F700F70B8C
:1001C000DF288312A0152008831687000330F7006C
:1001D000F70BE828831207122012200883168700E5
:1001E0000430F700F70BF22883128711A0112008C2
:1001F0008316870083122108BC002920360EB80020
:100200000F30B8053808B9003708BA00852036081D
:100210000F39B800B9003708BA008520201220082D
:100220008316870000008312A0152008831687001C
:100230008312871D19290430F700F70B1D29202987
:10024000000020162008831687000430F700F70B03
:100250002729831208000130B600B701D9200230E7
:10026000AF0015200130A40008002808A1002A08CA
:10027000A2002908A3000B138B138B1B3C293230DF
:10028000AF00152020162008831687000430F700E1
:10029000F70B48298312A015200883168700033026
:1002A000F700F70B5129831207122012200883163A
:1002B00087000430F700F70B5B2983128711A01128
:1002C00020088316870083122108BC002920B90169
:1002D000BA0185200F30AF0015200130AB002B088C
:1002E000033C031C7C290330B900BA01852005308A
:1002F000AF001520AB0A6F290230B900BA01852082
:100300000530AF001520201220088316870000005A
:100310008312A0152008831687008312871D8E295B
:100320000430F700F70B92299529000020162008C9
:10033000831687000430F700F70B9C298312AB016A
:100340002B08033C031CAF292B080420AC00B6008B
:10035000B701D9200530AF001520AB0AA0292B2109
:10036000C0308B048A110A12FC2AA8080319BB2981
:100370000830A500BC29A5018A110A12FF2A3008FD
:1003800022020318C6292208B100C8293008B1008A
:100390003108013A0319D629033A0319D829013A39
:1003A0000319DB29073A0319DE29E129B301E22900
:1003B0004030B300E2291430B300E2295430B300D6
:1003C000E229B3012F0823020318E9292308B20008
:1003D000EB292F08B200013032023307B400340891
:1003E0008038B500B600B701D92008002E080C3AB5
:1003F0000319012A063A0319032A023A0319102A9B
:10040000152A2B211A2AA40A2408220203180A2AD0
:100410000130A4000130AF002408B000BF211A2A27
:100420001030B600B701D9201A2A2E08B6000130C4
:10043000B700D92008000B08A8008B1383160317F8
:100440008C170C140000000083120313A81B8B17D9
:1004500003170C087F3903196F2A0313A800031729
:100460000D080313A90003170F080313AA00280897
:10047000AE00F621290803178D0003132A0803177D
:100480008F0003130B08AB008B13831603178C1715
:100490000C140000000083120313AB1B8B1703170F
:1004A0000C0D0E0D7F3903196F2A0313A8000317D3
:1004B0000D080313A90003170F080313AA00280847
:1004C000AE00F621290803178D0003132A0803172D
:1004D0008F008D0A03198F0A03131B2A03170313B6
:1004E0008A110A120E2B2F08F8012E0203187B2AFC
:1004F0002E08F700872AF7010830B000AE0DF70D7F
:100500002F0877020318F700F80DB00B7E2A0800B9
:100510002030291E3030AA002808F700A81F982A8A
:10052000F709F70A7708A8002D30AA00A91729149F
:100530002808AE006430AF0073227708A80030307E
:100540007807AB002808AE000A30AF0073223030C5
:100550007707AD0030307807AC002A08F70030305C
:100560002B020319B72AA914A91B2915CB2A2A087B
:10057000AB002030AA0030302C020319C32A291402
:10058000A91BA914CB2A031D2914031DCB2A2B0850
:10059000AC002030AB002919D22AA918D52A291875
:1005A000D82ADB2A2A08AE00F6212B08AE00F62155
:1005B0002C08AE00F6212D08AE00F6218A110A1291
:1005C000182B03081F398300FF30A0000130A4005E
:1005D0000830A500A70183161F149F141F159F1133
:1005E00007309C0083138312A6014E30A800103000
:1005F000A9000230AA0035290130A800B529003031
:100600008316860001308312AF00B000BF210C308A
:1006100003178D0000308F0003131B2A0130AF0039
:100620000230B000BF212708A8001830A900882A8E
:10063000A70A0430A800FA30AF001520A80B1B2B26
:060640008316022B63008B
:02400E00723FFF
:00000001FF
;PIC16F877A
;CRC=1D04  CREATED="18-Sep-21 22:05"
